:020000040800F2
:1000000000000120950100089D9E00089D9E0008AB
:100010009D9E00089D9E00089D9E00080000000017
:100020000000000000000000000000009D9E00088D
:100030009D9E0008000000009D9E0008C3E8000887
:100040009D9E00089D9E00089D9E00089D9E0008A4
:100050009D9E00089D9E000851E9000857E9000890
:100060005DE9000863E9000869E900089D9E000851
:100070009D9E00089D9E00089D9E00089D9E000874
:100080009D9E00089D9E00089D9E000800000000A7
:100090000000000000000000000000006FE9000800
:1000A00051960008C995000865960008ED9500086E
:1000B0000196000815960008299600089D9E0008E4
:1000C0009D9E00089D9E00089D9E00089D9E000824
:1000D0009D9E0008C1F40008D9F40008000000004B
:1000E00085E900089D9E0008F9B0000800000000A6
:1000F0000000000000000000000000009D9E0008BD
:10010000000000009D9E00083D9600089D9E00088E
:1001100000000000000000000000000000000000DF
:100120009D9E00089D9E00089D9E00089D9E0008C3
:100130009D9E00080000000000000000000000007C
:10014000000000000000000000000000EDB000080A
:100150009D9E00089D9E00089D9E0008F1F40008E9
:100160009D9E00089D9E0008000000000000000009
:10017000000000000000000000000000000000007F
:10018000000000009D9E000800000000000000002C
:040190009D9E000828
:1001940017481849026800608A421BD0DFF858D01B
:1001A400002103E0154B5B58435004311448154BB0
:1001B40042189A42F6D3144A02E0002342F8043B60
:1001C400124B9A42F9D30EF09DFD29F023FF09F05A
:1001D40032FE70470E484FF4804101600D484FF0E5
:1001E400010101600C48D0F800D0406800470000CD
:1001F400F0FF0020EFBEADDE00000120540B030829
:10020400000000209C040020A004002010670020AF
:0C02140044380240003801400000FF1F89
:1080000081F0004102E000BF83F0004330B54FEA49
:1080100041044FEA430594EA050F08BF90EA020FB6
:108020001FBF54EA000C55EA020C7FEA645C7FEA49
:10803000655C00F0E2804FEA5454D4EB5555B8BF6C
:108040006D420CDD2C4480EA020281EA030382EADD
:10805000000083EA010180EA020281EA0303362D6F
:1080600088BF30BD11F0004F4FEA01314FF4801C42
:108070004CEA113102D0404261EB410113F0004F54
:108080004FEA03334CEA133302D0524263EB43030B
:1080900094EA050F00F0A780A4F10104D5F1200EA9
:1080A0000DDB02FA0EFC22FA05F2801841F1000104
:1080B00003FA0EF2801843FA05F359410EE0A5F1D8
:1080C00020050EF1200E012A03FA0EFC28BF4CF009
:1080D000020C43FA05F3C01851EBE37101F00045BF
:1080E00007D54FF0000EDCF1000C7EEB00006EEBCC
:1080F0000101B1F5801F1BD3B1F5001F0CD3490856
:108100005FEA30004FEA3C0C04F101044FEA4452AC
:1081100012F5800F80F09A80BCF1004F08BF5FEA33
:10812000500C50F1000041EB045141EA050130BD13
:108130005FEA4C0C404141EB0101013C28BFB1F525
:10814000801FE9D291F0000F04BF01460020B1FA70
:1081500081F308BF2033A3F10B03B3F120020CDA43
:108160000C3208DD02F1140CC2F10C0201FA0CF021
:1081700021FA02F10CE002F11402D8BFC2F1200C86
:1081800001FA02F120FA0CFCDCBF41EA0C0190403C
:10819000E41AA2BF01EB0451294330BD6FEA040485
:1081A0001F3C1CDA0C340EDC04F11404C4F1200270
:1081B00020FA04F001FA02F340EA030021FA04F382
:1081C00045EA030130BDC4F10C04C4F1200220FAD9
:1081D00002F001FA04F340EA0300294630BD21FA17
:1081E00004F0294630BD94F0000F83F4801306BFDD
:1081F00081F480110134013D4EE77FEA645C18BFD1
:108200007FEA655C29D094EA050F08BF90EA020F67
:1082100005D054EA000C04BF1946104630BD91EA5F
:10822000030F1EBF0021002030BD5FEA545C05D162
:108230004000494128BF41F0004130BD14F58004A1
:108240003CBF01F5801130BD01F0004545F0FE4115
:1082500041F470014FF0000030BD7FEA645C1ABF4A
:10826000194610467FEA655C1CBF0B46024650EA81
:10827000013406BF52EA033591EA030F41F40021AD
:1082800030BD00BF90F0000F04BF0021704730B533
:108290004FF4806404F132044FF000054FF0000108
:1082A00050E700BF90F0000F04BF0021704730B5C9
:1082B0004FF4806404F1320410F0004548BF40429E
:1082C0004FF000013EE700BF42004FEAE2014FEAF3
:1082D00031014FEA02701FBF12F07F4393F07F4FCE
:1082E00081F06051704732F07F4208BF704793F0D1
:1082F0007F4F04BF41F40021704730B54FF46074E4
:1083000001F0004521F000411CE700BF50EA0102E6
:1083100008BF704730B54FF000050AE050EA01028F
:1083200008BF704730B511F0004502D5404261EBFF
:1083300041014FF4806404F132045FEA915C3FF440
:10834000D8AE4FF003025FEADC0C18BF03325FEADD
:10835000DC0C18BF033202EBDC02C2F1200300FA8E
:1083600003FC20FA02F001FA03FE40EA0E0021FAB3
:1083700002F11444BDE600BF70B54FF0FF0C4CF4A1
:10838000E06C1CEA11541DBF1CEA135594EA0C0F53
:1083900095EA0C0F00F0DEF82C4481EA030621EA8E
:1083A0004C5123EA4C5350EA013518BF52EA0335C9
:1083B00041F4801143F4801338D0A0FB02CE4FF07B
:1083C0000005E1FB02E506F00042E0FB03E54FF0AB
:1083D0000006E1FB03569CF0000F18BF4EF0010EA3
:1083E000A4F1FF04B6F5007F64F5407404D25FEA9F
:1083F0004E0E6D4146EB060642EAC62141EA555152
:108400004FEAC52040EA5E504FEACE2EB4F1FD0C93
:1084100088BFBCF5E06F1ED8BEF1004F08BF5FEA11
:10842000500E50F1000041EB045170BD06F00046C3
:1084300046EA010140EA020081EA0301B4EB5C0470
:10844000C2BFD4EB0C0541EA045170BD41F4801168
:108450004FF0000E013C00F3AB8014F1360FDEBF8D
:10846000002001F0004170BDC4F10004203C35DA69
:108470000C341BDC04F11404C4F1200500FA05F3EC
:1084800020FA04F001FA05F240EA020001F000428D
:1084900021F0004110EBD37021FA04F642EB060103
:1084A0005EEA430E08BF20EAD37070BDC4F10C042D
:1084B000C4F1200500FA04F320FA05F001FA04F2F1
:1084C00040EA020001F0004110EBD37041F10001DD
:1084D0005EEA430E08BF20EAD37070BDC4F12005E8
:1084E00000FA05F24EEA020E20FA04F301FA05F250
:1084F00043EA020321FA04F001F0004121FA04F2F8
:1085000020EA020000EBD3705EEA430E08BF20EAC7
:10851000D37070BD94F0000F0FD101F00046400001
:1085200041EB010111F4801F08BF013CF7D041EA83
:10853000060195F0000F18BF704703F00046520087
:1085400043EB030313F4801F08BF013DF7D043EA58
:108550000603704794EA0C0F0CEA135518BF95EA0E
:108560000C0F0CD050EA410618BF52EA4306D1D195
:1085700081EA030101F000414FF0000070BD50EAB4
:10858000410606BF1046194652EA430619D094EA3E
:108590000C0F02D150EA013613D195EA0C0F05D128
:1085A00052EA03361CBF104619460AD181EA03017C
:1085B00001F0004141F0FE4141F470014FF0000034
:1085C00070BD41F0FE4141F4780170BD70B54FF0CF
:1085D000FF0C4CF4E06C1CEA11541DBF1CEA13554F
:1085E00094EA0C0F95EA0C0F00F0A7F8A4EB050431
:1085F00081EA030E52EA03354FEA013100F0888028
:108600004FEA03334FF0805545EA131343EA1263F0
:108610004FEA022245EA111545EA10654FEA0026A5
:108620000EF000419D4208BF964244F1FD0404F55E
:10863000407402D25B084FEA3202B61A65EB0305BA
:108640005B084FEA32024FF480104FF4002CB6EB77
:10865000020E75EB030E22BFB61A754640EA0C00F7
:108660005B084FEA3202B6EB020E75EB030E22BF37
:10867000B61A754640EA5C005B084FEA3202B6EB78
:10868000020E75EB030E22BFB61A754640EA9C0037
:108690005B084FEA3202B6EB020E75EB030E22BF07
:1086A000B61A754640EADC0055EA060E18D04FEAC5
:1086B000051545EA16754FEA06164FEAC30343EA65
:1086C00052734FEAC2025FEA1C1CC0D111F4801F32
:1086D0000BD141EA00014FF000004FF0004CB6E72B
:1086E00011F4801F04BF01430020B4F1FD0C88BFCA
:1086F000BCF5E06F3FF6AFAEB5EB030C04BFB6EBD5
:10870000020C5FEA500C50F1000041EB045170BDC7
:108710000EF0004E4EEA113114EB5C04C2BFD4EBF4
:108720000C0541EA045170BD41F480114FF0000E78
:10873000013C90E645EA060E8DE60CEA135594EAF4
:108740000C0F08BF95EA0C0F3FF43BAF94EA0C0FF7
:108750000AD150EA01347FF434AF95EA0C0F7FF46C
:1087600025AF104619462CE795EA0C0F06D152EAC0
:1087700003353FF4FDAE1046194622E750EA4106A4
:1087800018BF52EA43067FF4C5AE50EA41047FF4B5
:108790000DAF52EA43057FF4EBAE12E74FF0FF3C1A
:1087A00006E000BF4FF0010C02E000BF4FF0010CEB
:1087B0004DF804CD4FEA410C7FEA6C5C4FEA430C64
:1087C00018BF7FEA6C5C1BD001B050EA410C0CBFB3
:1087D00052EA430C91EA030F02BF90EA020F002015
:1087E000704710F1000F91EA030F58BF994208BF7C
:1087F00090422CBFD8176FEAE37040F00100704739
:108800004FEA410C7FEA6C5C02D150EA013C07D18F
:108810004FEA430C7FEA6C5CD6D152EA033CD3D0DA
:108820005DF8040B704700BF8446104662468C46D4
:108830001946634600E000BF01B5FFF7B7FF002807
:1088400048BF10F1000F01BD4DF808EDFFF7F4FF30
:108850000CBF012000205DF808FB00BF4DF808EDBB
:10886000FFF7EAFF34BF012000205DF808FB00BFDE
:108870004DF808EDFFF7E0FF94BF012000205DF800
:1088800008FB00BF4DF808EDFFF7CEFF94BF0120B5
:1088900000205DF808FB00BF4DF808EDFFF7C4FFAE
:1088A00034BF012000205DF808FB00BF4FEA410CF7
:1088B0007FEA6C5C02D150EA013C0AD14FEA430CDA
:1088C0007FEA6C5C02D152EA033C02D14FF0000017
:1088D00070474FF0010070474FEA410212F5001255
:1088E00015D211D56FF47873B3EB625212D94FEAF7
:1088F000C12343F0004343EA505311F0004F23FAE1
:1089000002F018BF404270474FF00000704750EA35
:10891000013005D111F0004008BF6FF000407047F2
:108920004FF00000704700BF4A0011D212F500124C
:1089300011D20DD56FF47873B3EB62520ED44FEAB7
:10894000C12343F0004343EA505323FA02F0704737
:108950004FF00000704750EA013002D14FF0FF3075
:1089600070474FF0000070474FEA4102B2F1E04318
:1089700024BFB3F5001CDCF1FE5C0DD901F0004C06
:108980004FEAC0024CEA5070B2F1004F40EB830056
:1089900008BF20F00100704711F0804F21D113F182
:1089A0003872BCBF01F00040704741F480114FEABB
:1089B0005252C2F11802C2F1200C10FA0CF320FA44
:1089C00002F018BF40F001004FEAC1234FEAD32361
:1089D00003FA0CFC40EA0C0023FA02F34FEA4303CB
:1089E000CCE77FEA625307D150EA01331EBF4FF054
:1089F000FE4040F44000704701F0004040F0FE406F
:108A000040F40000704700BF53B94AB9002908BFBD
:108A100000281CBF4FF0FF314FF0FF3000F00CB8C2
:108A2000ADF1080C6DE904CE20F088F8DDF804E023
:108A3000DDE9022304B07047704700BF034613F816
:108A4000012B002AFBD1181A0138704700000000E2
:108A500001F0FF01102A2BDB10F0070F08D010F8EF
:108A6000013B013A8B422DD010F0070F42B3F6D1F3
:108A7000F0B441EA012141EA014122F007047FF00C
:108A800000070023F0E80256083C85EA010586EA63
:108A9000010685FA47F5A3FA87F586FA47F6A5FA9F
:108AA00087F68EB9EED1F0BC01F0FF0102F00702AB
:108AB00032B110F8013B013A83EA010313B1F8D156
:108AC0000020704701387047002D06BF3546033837
:108AD000073815F0010F07D1013015F4807F02BF70
:108AE000013015F4C03F0130F0BC0138704700BFC1
:108AF00010B5054C237833B9044B13B10448AFF3D8
:108B000000800123237010BDA0040020000000009D
:108B100034CB020808B5034B1BB103490348AFF33C
:108B2000008008BD00000000A404002034CB02082F
:108B300010B594B0204B002101911A6C42F0805284
:108B40001A641B6C1D4A03F080530193019B029130
:108B5000136823F4404343F400431360136803F4A1
:108B600040430293029B01224FF48033CDE9082356
:108B700002244FF48003CDE90E4308214FF4A8737B
:108B80000420CDE910130723CDE9120308A803F050
:108B9000DFFE00B1FEE70F23CDE903344FF480532D
:108BA000CDE906300590214603A804F0A7F800B1EE
:108BB000FEE714B010BD00BF003802400070004056
:108BC000074B084A1A60BFF34F8F0749074BCA6823
:108BD00002F4E0621343CB60BFF34F8F00BFFDE7A9
:108BE000F0FF0020EFBEADDE00ED00E00400FA056E
:108BF000B0F86230013303F03F03A0F86230B0F800
:108C00006230B0F85E009BB298424FF0FF3018BF60
:108C100000207047B0F8F430B0F8F000181A00F0F7
:108C20003F007047B0F8F430B0F8F0209BB29342A8
:108C30001ABFD0F8E830985C4FF0FF30704713B59A
:108C40000DF10701044606F061FB90B9B4F86030FD
:108C5000B4F85C20013303F03F03934209D0B4F829
:108C60006020616D9DF8070092B29BB28854A4F811
:108C7000603002B010BD0000012370B50374B0F97C
:108C8000E230013304460E4600F1940508D190F815
:108C9000F8302BB1002380F8F830284606F09CFB12
:108CA000B4F8F2104B1C03F03F03B4F8F62092B274
:108CB0009342FAD0D4F8EC2028465654A4F8F23067
:108CC00006F012FB18B90349284606F061FB0120A3
:108CD00070BD00BFF18B0008037C33B1B0F8F22007
:108CE000B0F8F6309BB29A42FAD1704700F1110306
:108CF000914208BF4FF0FF31A0F8E020C0F8E83003
:108D000000F151020023A0F8F430C0E93B23A0F8A1
:108D1000E210A0F8F630704770B54FF47A7316463B
:108D20000022C0E90123164B03604FF6FF73A0F841
:108D3000E230144B984204460D4614D1124B9A8AE5
:108D4000A0F8E2205B8AA0F8E030012E04BF4FF6C5
:108D5000FF73A4F8E2302046B4F9E020B4F9E21041
:108D6000FFF7C4FF70BD0949284605F069FF0849AF
:108D7000A4F8E200284605F063FFA4F8E000E4E769
:108D800068D10208BC04002078D00208A0CF0208F5
:108D9000E8CF020838B50546044655F8943B5B69B0
:108DA0009847284606F046FAB4F8F030A4F8F430B4
:108DB00038BDB0F9E230013310B504460ED1036876
:108DC0005B69984794F8F83043B9012384F8F83088
:108DD00004F19400BDE8104006F00EBB10BD000089
:108DE00002F00703023BDBB2042B2DE9F7430E46EA
:108DF000C0F8FC1098BF1F4980F8F92098BFCC5CE0
:108E000002F0300388BF0024302B054626D1013400
:108E10004FF4C06712F0080F14BF4FF400594FF021
:108E20000009082C21D0092C21D013484FF4C1711E
:108E300005F026FF05F1940831463B4622464046A0
:108E4000CDF8009006F0F2F92846FFF7B2FF0B4983
:108E5000404603B0BDE8F04306F074BA12F02007B4
:108E60001CBF01344FF48067D4E70024E2E74FF4DD
:108E70008054DFE759D10208FCD002083F8C00087B
:108E800010B50446FFF795FFB4F8F420B4F8F030BD
:108E900092B29A421FBFD4F8E820D05C013303F0AD
:108EA0003F0314BFA4F8F0304FF0FF3010BD0000B6
:108EB000024903480022FFF72FBF00BF0010014006
:108EC000BC040020836810B504462BB10322014680
:108ED00098470023C4E90233204610BD836810B5CB
:108EE000044613B1032201469847204610BD4B1E8D
:108EF000032B9ABF880004384FF0FF307047000002
:108F00000139435C2BB1022907D8054B33F8110016
:108F10007047032901D8034BF8E74FF0FF30704743
:108F2000E4D10208EAD102082DE9F04104460F46D7
:108F3000FFF7DDFF431C054604D13F4840F24D11C9
:108F400005F09EFE7E1E032E28D83C4B13F80680AB
:108F500039462046FFF7D4FF013004D1364840F2AD
:108F6000571105F08DFE04EB07175837BB683BB16E
:108F700023696FEA08021A61DA6842EA0802DA60D5
:108F800004EB46039B88013B0B2B4BD8DFE803F037
:108F90001B1B1B1B0E0E1B1B4C4C4C2826484FF456
:108FA000A9714FF0FF3805F06BFED1E7A35D04F126
:108FB000100029461BB1BDE8F04104F055BBBDE8E7
:108FC000F04104F019BBA35D04F1100029461BB168
:108FD000BDE8F04104F032BBBDE8F04104F0F0BA66
:108FE000294604F1100004F009FB032E98BF144B2E
:108FF000256994BF9A574FF0FF3211462046FFF77C
:109000007FFF2B6A1843BB6828625BB1013A032AD1
:109010009ABF0A4B9A5C4FF0FF32D3432B61EB6847
:109020001343EB60BDE8F081294604F11000BDE870
:10903000F04104F0E3BA00BF88D10208F2D102087F
:10904000F6D10208036E10B5044653B150F8103F34
:109050006FF001021A61DA6842F00102DA6003F08F
:10906000FDFF20460121FFF75FFF20460221FFF7A9
:109070005BFF20460321FFF757FF20460421BDE890
:109080001040FFF751BF0369013999627047000032
:109090002DE9F0418CB00E46044690461F46FFF77E
:1090A00026FF411C054604D14B4840F24D2105F0F6
:1090B000E7FD013E04EB4603A3F804804FF6FF737F
:1090C00005932369D5B95B6B069300204FF6FF72B9
:1090D0000123CDE90900CDE90123CDE90300079083
:1090E00008900B90B8F10C0F1ED8DFE808F01010B4
:1090F00016323537404244464E515300042D01D1BB
:109100009B6BE1E7082D0CBFDB6B1B6CDCE705906C
:109110002A4605A904F1100004E0102305932A460D
:1091200005A9E01804F0F6F87B1C0FD0384605F0CE
:1091300055FAA8424AD12949384605F04FFD27493A
:10914000384605F08FFDC0F30050A0550CB0BDE8C7
:10915000F08120230593DBE73023FBE760232A46D9
:1091600005A904F11000059304F000F9DCE7702371
:10917000F5E75023EEE74023ECE701902A4601A9EA
:1091800004F1100004F084F9CEE702230193F5E71F
:109190000A23FBE704F1100801A901902A46404682
:1091A00004F076F9032E9ABF0D4B99574FF0FF311B
:1091B00004EB41030C225A8020460223CDE90133FF
:1091C000FFF795FE01A902464046DBE7024840F260
:1091D000B72105F055FDB2E788D1020864CC02083A
:1091E000F6D10208013903299ABF00EB41008088BB
:1091F0000020704703691A6819B142F080021A60B2
:10920000704722F08002FAE7F8B504460E4615468C
:10921000006905F087FE2A46314602F051FC2069BC
:1092200005F0BEFE0746206905F07CFE874206D0A9
:10923000206905F0B5FE2A46314602F041FCC4E93A
:109240001465F8BD0269D36823F00103D360583078
:10925000FFF738BE006E003818BF012070470121AB
:10926000103003F00DBF0000164A904203461BD099
:10927000B0F1804F1AD0A2F57C42904218D002F58E
:109280008062904216D002F58062904214D04FF670
:10929000FF700D4A934211D00C4A934210D00C4AF1
:1092A000934208BF072070470020F2E70120F0E753
:1092B0000220F1E70320F2E7042070470520704701
:1092C000062070470000014000400140004401407A
:1092D00000480140014670B5044651F8100FFFF7F1
:1092E000C3FF0546084605F0C7FD094A002342F8BA
:1092F000253004F15806E36004F1A805B54204D016
:10930000103D2846FFF7EAFDF8E7204670BD00BF94
:10931000BC050020F8B5002303660367C0F8803061
:10932000C0F89030C0F8A030044608460D46FFF75C
:109330009BFF4FF6FF739842064603D11E482F212C
:1093400005F09EFC1D4A256104F10C0342F826300D
:1093500000230D2204F11006C4E90C33C4E90E33D6
:10936000C4E91033C4E9142384F82C30A36484F8CE
:109370004C3084F84D30E460304605F0EDFC04F1EB
:10938000580504F1A80728461035FFF79BFDBD429C
:10939000F9D100234FF6FF72C4E90033C4E9063265
:1093A000C4E90833A36063618023A362304603F0FD
:1093B0006BFF2046F8BD00BF88D10208BC05002025
:1093C00030B58DB014220446002102A820F08EFE94
:1093D000002501A902A8019503F052FD206905F0BE
:1093E00047FE012808D0022821D01B4840F2FF4147
:1093F00005F046FC2C4603E0059D03F021FD0446E4
:109400001422002107A820F071FE07A803F056FDE2
:109410009DF82C30012B10D125F48065B5F5C05F87
:1094200009D003F007FD044620460DB030BD069D6F
:1094300003F016FDE3E7A400F6E7B5F5C05F05D03D
:1094400006D825F48065B5F5805FEDD16400EBE7C3
:10945000B5F5E05FF9E700BF88D10208012A38B509
:1094600005460C4607D0022A12D004B1013C2B69F4
:10947000DC62EC6138BDFFF7A3FF0849B0FBF1F0F7
:1094800044432B69210C99620131B4FBF1F4ECE700
:10949000FFF796FFB0FBF4F4F3E700BF40420F0084
:1094A000036970B55C6A9D6A012905F1010503D065
:1094B00002291CD0204670BDFFF782FF064604FB40
:1094C00005F0FEF7DFFE0EA3D3E90023FEF754FFFD
:1094D000044630460D46FEF7D5FE02460B462046B2
:1094E0002946FFF773F8FFF71FFA0446E2E7FFF794
:1094F00067FF6C43B0FBF4F4DCE700BFAFF3008020
:109500000000000080842E412DE9F04180461D4678
:109510001446FFF7ECFCD8F810309E6A431C07464F
:1095200006F1010604D1264840F2F62105F0A8FB19
:10953000822D34D01ED8102D0BD865B1D8F810303C
:10954000DA6A02FB04420124AC40013CB2FBF4F4B1
:1095500001E0812D19D0D8F81030DA6A4FF6FF718A
:109560008A4203D1B4F5803F08BF1446F7B95C6363
:10957000BDE8F081832DEED1D8F81030DA6A02FB15
:1095800004446422B4FBF2F4E5E74046FFF718FF19
:109590000C4AB0FBF2F04443B4FBF6F4DBE7404680
:1095A000FFF70EFF7443B0FBF4F4D4E7042F01D1AE
:1095B0009C63DDE7082F0CBFDC631C64D8E700BFA9
:1095C00088D1020840420F0010B5074C206810B146
:1095D000043003F069FDA06920B1BDE810400430FB
:1095E00003F062BD10BD00BFBC050020034B18682E
:1095F00010B1043003F058BD704700BFBC05002017
:10960000034B586810B1043003F04EBD704700BFE3
:10961000BC050020034B986810B1043003F044BD32
:10962000704700BFBC050020034BD86810B1043060
:1096300003F03ABD704700BFBC050020034B18691A
:1096400010B1043003F030BD704700BFBC050020EE
:10965000034B586910B1043003F026BD704700BFBA
:10966000BC050020034BD86910B1043003F01CBDC9
:10967000704700BFBC05002038B5002383608B68AD
:1096800004460D462BB102229847EB68E360AB68B5
:10969000A360204638BD30B587B002AD04462846E9
:1096A000FFF7EAFF95E803006B4683E8030094E8C0
:1096B000030085E8030093E80300049BA268A3600D
:1096C000059B049284E80300E268E3602846059263
:1096D000FFF704FC204607B030BD38B504460D4600
:1096E000236E583013B1FFF7D6FF38BDFFF7D3FF15
:1096F000AB68002BF9D023696FF001021A61DA68B8
:1097000042F00102DA60F0E7826810B50AB91FF092
:1097100077FBBDE81040C3681847000010B5044649
:1097200020B9074840F2264105F0AAFA204605F084
:1097300011FB0068036E13B15830FFF7E5FF10BD51
:1097400088D10208FFF7EABF38B5054620B91148AD
:1097500040F2394105F094FA2B7F013B072B11D8D9
:10976000DFE803F01504101110101013022428462E
:1097700005F0F0FA240100685834204483680BB1E6
:10978000FFF7C2FF38BD0324F1E70424EFE701240B
:10979000EDE700BF88D10208FFF7D6BFFFF7D4BFBF
:1097A000F8B505460E4617460024BC4207D02B6884
:1097B000315D1B682846984708B10134F5E720461B
:1097C000F8BD13B50446084659B10191FFF736F9C3
:1097D000236801995B680246204602B0BDE810404C
:1097E000184702B010BD08B5FFF7EBFF08BD0368CE
:1097F0001B68184708B50249FFF7E3FF08BD00BF23
:10980000FAD1020838B50546FFF7DBFF04462846C3
:10981000FFF7F0FF204438BD30B58BB000238DF842
:109820002430012A98BF0A2209AC0D46B1FBF2F19F
:1098300001FB125303F0FF03092B94BF303337337E
:10984000DBB2AA4204F8013DEFD92146FFF7B9FF88
:109850000BB030BD2DE9F04107460E4614462AB93B
:109860000368BDE8F0411B68C9B218470A2A0DD148
:1098700000290CDA2D21FFF7BAFF22460546714276
:109880003846FFF7C9FF2844BDE8F081D2B2BDE8F1
:10989000F041FFF7C1BFFFF7DDBF38B50546FFF761
:1098A000D9FF04462846FFF7A5FF204438BD38B548
:1098B0000546FFF7CFFF04462846FFF79BFF2044ED
:1098C00038BD10B42AB902685DF8044B1268C9B2F9
:1098D00010475DF8044BD2B2FFF79EBF38B505467E
:1098E000FFF7EFFF04462846FFF784FF204438BD0A
:1098F0002DE9F84F55EC104B06460F4610EE102A96
:1099000010EE100A2B462946FEF7D0FF38B14B491E
:109910003046FFF756FF82465046BDE8F88F25F0E7
:109920000049474B4FF0FF3220464946FEF7BEFF45
:1099300048B9434B4FF0FF3220464946FEF798FFA7
:1099400008B94049E4E7404B4FF0604220462946C1
:10995000FEF7A2FF08B13D49DAE73D4B4FF0604208
:1099600020462946FEF77AFF0028F4D10022002382
:1099700020462946FEF772FFD0B12D213046FFF771
:1099800036FF05F1004382461D463249DFF8CC9090
:109990004FF0000B00204FF000085FFA8BF39F425E
:1099A00008D942464B46FEF711FE0BF1010BF4E7D6
:1099B0008246EAE722462B46FEF728FB0D46044680
:1099C000FEF7B2FF8046FEF75DFC02460B462046DE
:1099D0002946FEF719FB0A2204460D463046414649
:1099E000FFF71AFF824427B11B493046FFF7E9FE13
:1099F0008244DFF868904FF00008013FFFB2FF2F6C
:109A00008AD04B46424620462946FEF7B5FC0D4615
:109A10000446FEF761FF0A22014683463046FFF7FF
:109A200019FF82445846FEF73DFC02460B4620468D
:109A30002946FEF7E9FA04460D46DEE7FDD10208A5
:109A4000FFFFEF7F01D20208FFFFEF4105D20208BE
:109A5000FFFFEFC10000E03F8EF402080000244049
:109A6000C9B2FFF745BF38B5C9B20546FFF740FF99
:109A700004462846FFF7BEFE204438BD10B5044614
:109A800001F074FDE06023682046DB6898470028F9
:109A900008DA01F06BFDE368C01AA3689842F2D3BC
:109AA0004FF0FF3010BDF8B506460D4617460024AE
:109AB000BC4207D03046FFF7E1FF031E02DB2B5507
:109AC0000134F5E72046F8BD2DE9F0410746884608
:109AD00016461D4673B100243846FFF7CFFF031E1C
:109AE00005DB434503D033550134A542F4D120466C
:109AF000BDE8F0811C46FAE703681847012A03D045
:109B0000022A03D0002070470160FBE70B68036066
:109B1000F8E707B503688DF807105B6801220DF1BF
:109B20000701984703B05DF804FB0000014800F00E
:109B3000BCB900BFC45D00202DE9F041DFF83C80D6
:109B40000E4614461746AFB100F0BEFD90B1404638
:109B500000F0ABF9B84228BF384605460028F2D0DD
:109B600002463146404600F0C1F97F1B2E4400F00A
:109B7000C7FDE8E7E01BBDE8F08100BFC45D002041
:109B8000014800F058BA00BF4A5E002010B50448F2
:109B900000F079FA044600F0E9FD204610BD00BF50
:109BA0004A5E00202DE9F84306460F46154694B25A
:109BB00001F0DCFCDFF83490F0602246394648467C
:109BC00000F0BEFA8046A4EB0804A4B200F0CEFD7B
:109BD00047443CB101F0CAFCF368C01AB36898422C
:109BE000EBD32D1B2846BDE8F88300BF4A5E00205A
:109BF0002DE9F04F85B00646884617461C469DB2B3
:109C000001F0B4FCDFF84CA0F0600DF10E093A460B
:109C10002B464146CDF80090504600F0D9FA8346D5
:109C200000F0A4FDBDF80E20AD1AADB21744BBF193
:109C3000000F04D0641B204605B0BDE8F08F002D56
:109C4000F9D001F093FCF368C01AB3689842DED3F0
:109C5000F0E700BF4A5E0020014800F04BBA00BFA9
:109C60004A5E002010B5034C204600F02EF9002873
:109C7000FADC10BDC45D002000F0F0BC00F012BDA5
:109C8000044B10B51C680A2001F072FC631E584298
:109C9000584110BDF0050020044B4FF47A720021AA
:109CA000C3E90112024A1A60704700BFDC050020B8
:109CB00014D2020810B5029C401AE41A4443511A07
:109CC00094FBF1F4E01810BD08B5044B2BB1044827
:109CD000FEF7A0FF08B1AFF3008008BD0000000050
:109CE000BC0400202DE9F04F57EC106BA5B00446E2
:109CF0008846154610EE100A002200233946FEF76A
:109D0000ADFD00286DD007F100431F464FF0010A5A
:109D10003F494FF000090020C84564DC02460B466D
:109D200030463946FEF772F90F460646FEF7FCFD4F
:109D30008146FEF7A7FA02460B4630463946FEF743
:109D400063F90F46334906464FF0000B0020D84513
:109D500050DC32463B46FEF70FFBFEF7BDFD4346A7
:109D600000904A46BAF1000F4BD02B4900262846F6
:109D700020F0C2FA31467D2204A8039620F0B6F9FD
:109D8000B4422846BCBF64420126FEF757FEA042FB
:109D900023D28022202103A820F0A8F92846FEF72C
:109DA0004DFE24AB241A1C44002304F8843C56BB0B
:109DB0002846FEF743FE013020F052F929460446BA
:109DC00020F0F2FA03A9284620F0EEFA21462846B0
:109DD00020F0CEFA204620F04BF9284625B0BDE809
:109DE000F08F824694E70D4B0022FEF7EFFB09F15E
:109DF000010991E7094B0022FEF7BEFA0BF1010BB6
:109E0000A5E70749B2E703A9284620F0B1FAE4E73D
:109E10000000E03F0000F03F38D20208000024407C
:109E200039D2020804F072BD704708B5032001F072
:109E300035FEBDE80840FFF7F5BF08B5AFF3008079
:109E400006F090F906F054F9FFF73EFFFAE720F02C
:109E500007B920F00DB900000F2803D9412808D810
:109E6000034601E000F132030B4A32F913305A1C69
:109E700009D1452809D046280AD0432840F20113C9
:109E800018BF4FF0FF33184670474FF48173FAE75D
:109E900040F20313F7E700BF78D00208FEE7002383
:109EA000A0F88230A0F880307047B0F88230B0F867
:109EB00080009BB280B2181A7F30434203F07F03C8
:109EC00000F07F0058BF58427047B0F88030B0F8BB
:109ED00082009BB282B203F18000801A434203F0F9
:109EE0007F0300F07F0058BF58427047F8B5B0F8C4
:109EF0008050ADB2C5F18005954204460F46B0F8DA
:109F0000800016460CD914FA80F020F0C7F8B4F897
:109F1000803016FA83F202F07F02A4F88020F8BDA8
:109F20002A4614FA80F020F0B9F8721B79192046FD
:109F3000EBE7B0F88020B0F8823092B29BB29A4240
:109F40002BBFB0F88030B0F88230B0F88220C3F177
:109F5000800328BF9B1A9BB20B80A0F88430B0F816
:109F6000823010FA83F07047B0F88220B0F8843065
:109F7000134403F07F03A0F8823070470023A0F859
:109F8000C230A0F8C030C023A0F8C4307047B0F889
:109F9000C23082B09BB2ADF80630B0F8C020BDF838
:109FA000063092B29BB29A42B0F8C0309BB21FD337
:109FB0007F2B08D9B0F8C0309BB2802B09D1BDF8F7
:109FC00006309BB22BB1B0F8C03010FA83F002B06B
:109FD0007047BDF806309BB2402B4FF000030DD9FF
:109FE000B0F8C02092B2A0F8C420A0F8C030EAE7D0
:109FF000BDF80620403392B29342E4D30020E6E756
:10A00000B0F8C03011FA83F189B2A0F8C010B0F8EE
:10A01000C020B0F8C43092B29BB29A4224BFC02391
:10A02000A0F8C430B0F8C0309BB2BF2B84BF00236F
:10A03000A0F8C0307047B0F8C03082B09BB2ADF825
:10A040000430B0F8C4309BB2ADF80630B0F8C2208E
:10A05000BDF8043092B29BB29A4208D8BDF80430E1
:10A06000B0F8C2009BB280B2181A02B07047BDF8B7
:10A070000630BDF80410B0F8C22089B292B211FACD
:10A0800083F0801AF1E7B0F8C03082B09BB2ADF82F
:10A090000430B0F8C4309BB2ADF80630B0F8C2203E
:10A0A000BDF8063092B29BB29A4204BF0023A0F8DA
:10A0B000C230B0F8C220BDF8043092B29BB29A42CE
:10A0C00015D0B0F8C2309BB25A1C92B2A0F8C22090
:10A0D000B0F8C210BDF80620C35C92B289B29142BA
:10A0E00024BF0022A0F8C220184602B070474FF0EB
:10A0F000FF30FAE7B0F8C03082B09BB2ADF8043060
:10A10000B0F8C4309BB2ADF80630B0F8C220BDF84C
:10A11000063092B29BB29A4224BF0023A0F8C2300C
:10A12000B0F8C220BDF8043092B29BB29A421BBF75
:10A13000B0F8C2309BB24FF0FF30C05C02B0704745
:10A1400037B504460846B4F8C0309BB2ADF80430C9
:10A15000B4F8C4309BB2ADF80630B4F8C210BDF804
:10A16000063089B29BB2994224BF0023A4F8C230C2
:10A17000B4F8C210BDF8043089B29BB2994294BFC2
:10A18000BDF80430BDF80630B4F8C250B4F8C210BF
:10A190005B1B9DB2954228BF15462A4614FA81F1F1
:10A1A0001FF07CFFB4F8C23015FA83F39BB2A4F819
:10A1B000C230B4F8C220BDF8063092B29BB29A42C7
:10A1C00028BF0023284628BFA4F8C23003B030BD02
:10A1D000F7B5B0F8C040089DA4B2ADF80440B0F89F
:10A1E000C440A4B2ADF80640B0F8C260BDF8064065
:10A1F000B6B2A4B2A64224BF0024A0F8C240B0F870
:10A20000C260BDF80440B6B2A4B2A64294BFBDF885
:10A210000440BDF80640B0F8C260B0F8C270A41B9C
:10A22000A4B2A34228BF234610FA87F70024A6B29F
:10A23000B34215D82B80B0F8C22013FA82F39BB238
:10A24000A0F8C230B0F8C220BDF8063092B29BB27E
:10A250009A424FF0000328BFA0F8C230184618E019
:10A2600017F804C08C4516D1B0F8C2309BB2013348
:10A2700033449BB2A0F8C230B0F8C220BDF806301B
:10A2800092B29BB29A4224BF0023A0F8C2302E8023
:10A29000012003B0F0BD02F804C00134C7E7D0F8D4
:10A2A000BC3210B56BB1D0F8B84294F80002FF2868
:10A2B00007D09B6894F8012221469847FF2384F831
:10A2C0000032002010BD0000432303800048704787
:10A2D0003800002043230380004870477C000020A2
:10A2E0004323038000487047CC0000200A230380EA
:10A2F00000487047C000002038B50446D0F8B85276
:10A3000000F0B2FFD4F8B832C5F80C024BB1D4F863
:10A31000BC32D5F80402DB6805F5037198470020CC
:10A3200038BD0220FCE7D0F8B822F8B505460AB3DC
:10A33000142707FB0107FB6993B1D0F8C0424FF027
:10A340001C0C0CFB0146766CB3FBF6F406FB1434D4
:10A3500034B9FC612346224600F078FF2046F8BD60
:10A36000D5F8BC3218690024C2F814420028F6D08F
:10A370008047F3E70220F2E72DE9F7430A78D0F8A7
:10A38000B8724FF0000812F0600405460E468DF8D2
:10A390000580ADF8068028D0202C42D1CC884B789F
:10A3A000E4B1120611D5D0F8BC223946D2F8089093
:10A3B00018462246C847F2883946284600F091FDE3
:10A3C0004446204603B0BDE8F08387F8003287F8A2
:10A3D00001422246394600F099FDF1E7D0F8BC224F
:10A3E000184695682246A847EBE74B780A2B0CD015
:10A3F0000B2B12D0ABB990F89C32032B11D1022257
:10A400000DF1060100F06DFDDBE790F89C32032BA7
:10A4100007D101220DF10501F4E790F89C32032BDE
:10A42000CFD03146284600F035FD0224C9E738B5C3
:10A4300004460025822100F0DAFE01212564204631
:10A4400000F0D5FEC4F86C518321204600F0CFFE09
:10A45000D4F8B83265654BB1D4F8BC325B68984724
:10A46000D4F8B8021FF004FEC4F8B852002038BD7A
:10A470002DE9F041037C0446BBBB4FF4007302227C
:10A480008221012500F0A9FE25644FF400732946BE
:10A490000222204600F0A1FE0127C4F86C510823D7
:10A4A00003228321204600F098FE67654FF4077071
:10A4B0001FF0D6FD0546C4F8B80240B3D4F8BC324C
:10A4C0001B689847267C4FF00008C5F81482C5F831
:10A4D00018829EB9D5F804224FF4007339462046FD
:10A4E00000F0BBFE3046BDE8F0814023022282210D
:10A4F000012500F072FE25644023C8E7D5F8042248
:10A5000040233946204600F0A8FE4646EAE73E468C
:10A51000E8E719B1C0F8BC1200207047022070476C
:10A52000D0F8B8320020C3F80812C3F810227047E0
:10A53000D0F8B8320020C3F804127047D0F8B8221F
:10A5400010B582B1D2F81442012374B9C2F81432A2
:10A55000D2F810324364D2F808229BB2822100F074
:10A5600075FE204610BD0220FCE71846FAE7D0F839
:10A57000B82210B582B1047CD2F8042234B94FF469
:10A580000073012100F069FE204610BD4023012127
:10A5900000F063FE0024F7E70224F5E708B5D0F8E1
:10A5A000B83233B100231A46012100F056FE0020D4
:10A5B00008BD0220FCE700207047000008B50948EC
:10A5C000FFF76DFC0848FFF7D9FC084B064801224D
:10A5D0001A70FFF7DCFC01460548FFF7A9FF0020D1
:10A5E00008BD00BFC45D00204A5E00202C01002091
:10A5F000105F002021280ED022281DD0202808D14D
:10A60000134B0A681A600A791A714A795A718A7961
:10A610009A71002070470E4B1A680A701A68120A65
:10A620004A705A888A70DA78CA701A790A715A7927
:10A630004A719B798B71ECE74B88064A03F0010362
:10A6400013601368002BE4D0034B00221A60E0E78C
:10A6500024010020F0050020F405002010B50C4C6A
:10A6600022789AB90B490C4800F0B2F870B90B493E
:10A67000094800F0D4F848B909490748FFF749FFED
:10A6800020B9054800F0D2F80123237010BD00BFA7
:10A69000EC05002044010020105F00200000002095
:10A6A0001001002010B5064C23783BB1054800F09E
:10A6B000C2F8044800F0A1F80023237010BD00BFC9
:10A6C000EC050020105F00200A4B10B51C6814B187
:10A6D00000F0A8FF041B084B93F89C32032B07D112
:10A6E000022C05D8054B1868003818BF012010BD92
:10A6F0000020FCE7F4050020105F0020F00500209A
:10A700001FB50F4CD4F8B832D3F81432ABB90D489A
:10A710000DF10E01FFF70DFCBDF80E306BB101908D
:10A7200000F080FF084BBDF80E201860019920460C
:10A73000FFF7F6FE2046FFF701FF04B010BD00BF93
:10A74000105F0020C45D0020F405002010B5054B0B
:10A75000054800241C60FFF707FCFFF7D1FF2046E7
:10A7600010BD00BFF4050020C45D002038B50A4DBF
:10A770002B780BB1002038BD0848FFF708FC0146D4
:10A780000028F7D0012406482C70FFF7D1FE0448BA
:10A79000FFF7EDFE2046EEE72C0100204A5E002088
:10A7A000105F002008B509880648FFF729FC064B12
:10A7B00000221A70FFF7DAFF10B90448FFF7EEFE27
:10A7C000002008BD4A5E00202C010020105F002000
:10A7D00008B580B1D0F8B43213B10023C0F8B43258
:10A7E00009B1C0F8B012012380F89C32027000F069
:10A7F000A1FC002008BD0220FCE7012310B580F871
:10A800009C32D0F8B43201795B6804469847204600
:10A8100000F0DCFC204600F0CBFC002010BD19B19C
:10A82000C0F8B412002070470220704708B500F04D
:10A83000C6FC002008BD10B5D0F8B43201795B68C1
:10A8400004469847204600F0C1FC002010BD08B522
:10A85000D0F8B4320BB9022008BD1B689847002815
:10A86000FAD0F8E708B5D0F8B4325B689847002012
:10A8700008BD38B5044600F52A75284600F0F6FAFA
:10A88000012394F8A812C4F89432B4F8AE32C4F894
:10A89000983201F01F03012B08D0022B0BD07BB99B
:10A8A0002946204600F00CF9002038BD29462046F4
:10A8B00000F030FAF8E72946204600F04FFAF3E7B7
:10A8C00001F08001204600F099FCEDE770B50446E8
:10A8D00016460D4639BBD0F89432032B1CD1D0E973
:10A8E000581291420BD9891A8A42C0F860118CBF64
:10A8F0008AB292B2314600F016FB284670BDD0F8FD
:10A90000B4321B6923B190F89C22032A00D19847E6
:10A91000204600F010FBF0E7052BEED1C4F89412AE
:10A9200000F06CFCE9E7D0F8B4329B6933B190F8E1
:10A930009C22032A02D198470025DEE70225DCE7A6
:10A94000F8B5044617460D46002947D1D0F8943291
:10A95000022B3CD1D0E908639E4214D9F31A03625A
:10A960009AB2394600F0CAFA2B462A4629462046B2
:10A9700000F073FC94F8A032012B02D1002384F87C
:10A98000A0322846F8BDC269B2FBF3F603FB1626D7
:10A990005EB9934209D8D0F898329A4205D20A4655
:10A9A00000F0ACFAC4F89852DEE794F89C32032B1E
:10A9B00009D1D4F8B432DB680BB120469847802126
:10A9C000204600F01BFC204600F0C0FAD2E733F02E
:10A9D0000403CFD1802100F011FCCBE7D0F8B432D2
:10A9E0005B6933B190F89C22032A02D19847002575
:10A9F000C7E70225C5E770B50022044611460125C8
:10AA00004026402300F0E9FB33468021C4F858512A
:10AA1000C4F864610022204600F0DFFBD4F8B832AD
:10AA2000A5610021666284F89C52C4F894126160AA
:10AA3000C4F8A41223B1D4F8B43220465B68984716
:10AA4000002070BD01740020704790F89C3280F89F
:10AA50009D32042380F89C320020704790F89C328D
:10AA6000042B04BF90F89D3280F89C320020704780
:10AA700008B590F89C22032A04D1D0F8B432DB69DF
:10AA800003B19847002008BD0020704700207047A0
:10AA90000020704708B5012280F89C22D0F8B4222B
:10AAA000017952689047002008BD10B58021044606
:10AAB00000F0A4FB20460021BDE8104000F09EBB42
:10AAC00037B50B7803F06003202B04460D4612D0F7
:10AAD000402B10D0002B51D14B78092B4ED8DFE8FA
:10AAE00013F0EE000A014D0003014D008700130032
:10AAF0004D00D600A300D4F8B43229469B68204606
:10AB00009847002003B030BD0023ADF806304B88D5
:10AB10001A0A013A062A31D8DFE802F00416233077
:10AB200030485200D0F8B0321B68207C0DF106018D
:10AB30009847BDF80620002A56D0EB88002B4AD152
:10AB4000204600F0F8F9DCE7027CD0F8B43232B9E4
:10AB50009B6A0DF10600984702234370E9E7DB6A20
:10AB6000F7E7DBB2052B09D8DFE803F0030C10147C
:10AB7000181CD0F8B0325B68002BD6D12046FFF706
:10AB800094FFBEE7D0F8B0329B68F5E7D0F8B0325A
:10AB9000DB68F1E7D0F8B0321B69EDE7D0F8B032EE
:10ABA0005B69E9E7D0F8B0329B69E5E7037C002BED
:10ABB000E4D1D0F8B4320DF106005B6B9847B8E7EA
:10ABC000037C002BDAD1D0F8B4320DF106001B6BF8
:10ABD00098470723C1E79A4228BF1A4601462046F4
:10ABE000ADF8062000F07DF9EB88002B89D1A7E7AE
:10ABF0008B88002BC2D1CB88002BBFD14D887F2DF5
:10AC0000BCD890F89C32032BB8D0E9B280F89E12E1
:10AC100000F015FB204600F08EF91DB1022384F8E8
:10AC20009C326EE70123FAE78978394D01292970B2
:10AC3000A4D890F89C32022B08D0032B15D0FFF734
:10AC400034FF29782046FFF70DFE5AE700293FF42C
:10AC500077AF01210323416080F89C322046FFF743
:10AC6000F6FD02287FF46CAF88E731B9022380F843
:10AC70009C324160FFF7F6FD62E7416801293FF42D
:10AC80005FAFC9B2FFF7EEFD29786160E6E7CA88D9
:10AC9000012A7FF473AF90F89C32022B0AD8002B64
:10ACA0003FF46CAF0146002341F8083F204600F016
:10ACB00018F926E7032B7FF461AF011DF6E790F842
:10ACC0009C32013B022B3FF659AFCB88022B7FF41D
:10ACD00055AF0123C360D0F8A4320BB10323C36086
:10ACE000022204F10C01E1E74B88012B7FF409AF4C
:10ACF000C4F8A43224E790F89C32013B022B3FF6C3
:10AD00003DAF4B88012B7FF4FCAE0023F0E700BF82
:10AD1000F805002038B50B7803F06002402A04469D
:10AD20000D4601D05B0615D494F89C32013B022BF2
:10AD300010D82B79022B0DD8D4F8B43229469B6851
:10AD400020469847EB881BB910B9204600F0F3F86D
:10AD5000002038BD2046FFF7A8FEF9E738B50A788D
:10AD600002F06002202A04460B4627D0402A25D054
:10AD700092BB5A788D880979012A3DD0032A25D0C3
:10AD800052BB90F89C32022B4DD0032B24D101F002
:10AD90000F03142215F0800F02FB030352D09B69AE
:10ADA000D3B101F07F05142305FB0333C51811F05F
:10ADB0007F0353D12B60022229463FE0D4F8B4220E
:10ADC0001946926820469047002038BD90F89C2292
:10ADD000022A1FD0032A03D02046FFF766FEF3E7BE
:10ADE0005A882AB94A0603D0DB880BB900F006FA64
:10ADF000204600F0A0F8E7E790F89C22022A09D04C
:10AE0000032AE9D15B88002BDED14D06F0D000F09B
:10AE1000FCF9EDE74B06DFD000F0F0F98021204689
:10AE200000F0ECF9D0E74A06D6D12B064CBF00F172
:10AE3000140100F5AA7100230B600222204600F0E5
:10AE400050F8C1E7D3F85831002BC5D001F07F0589
:10AE5000142303FB050505F5AA75A8E7204600F0B5
:10AE6000DBF908B10123A5E72860A4E70B7803709C
:10AE70004B784370CA788B7803EB022343804A797E
:10AE80000B7903EB02238380CA798B7903EB0223CE
:10AE9000C380704710B58021044600F0AFF920460A
:10AEA0000021BDE8104000F0A9B930B588B10025F7
:10AEB00001382B460135445D002CFAD1DBB2013359
:10AEC0005B0013800B7003234B70022310F8015FAB
:10AED00005B930BD5A1CD2B2CD5402338C54DBB20A
:10AEE000F4E710B502241346C0E90722C0F89442E3
:10AEF0000A46002100F0AAF9002010BD08B513464B
:10AF00000A46002100F0A2F9002008BD10B5032474
:10AF10001346C0E95722C0F894420A46002100F0C7
:10AF20009CF9002010BD08B513460A46002100F028
:10AF300094F9002008BD08B50423C0F8943200231A
:10AF40001A46194600F082F9002008BD08B505230D
:10AF5000C0F8943200231A46194600F07EF900200A
:10AF600008BD00000368B3F1A04F37B504463ED1D9
:10AF7000204D03E0A96803F099FD0C35B5F90000F8
:10AF8000431CF7D11C4B5A6B42F080025A630022DB
:10AF90000192596C41F4804159645B6C03F4804325
:10AFA000012101934320019B00F08AFD432000F022
:10AFB000B9FD216A01294FF0000218D10F4B4FF45F
:10AFC00080205861D86820F48020D860986840F4C8
:10AFD00080209860186840F4802018602A2000F0D3
:10AFE0006FFD2A2003B0BDE8304000F09BBD03B0E8
:10AFF00030BD00BF30D0020800380240003C0140A4
:10B000000368B3F1A04F01BF024A536B23F08003E2
:10B01000536370470038024000F57171D0F80404A2
:10B02000FFF727BC1C2303FB0103D0F80404D3F86B
:10B030000822FFF74BBC1C2303FB0103D0F80404D8
:10B040009A6CFFF77DBCD0F80404FFF711BD10B572
:10B050000446D0F80404FFF7CEFCD4F80404012120
:10B06000BDE81040FFF7EEBC10B50446D0F804046C
:10B07000FFF7EBFC2268D2F8003E43F00103C2F870
:10B08000003E236A23B1034A136943F006031361A8
:10B0900010BD00BF00ED00E0036A10B5044633B1F7
:10B0A000FDF746FD084A136923F006031361226881
:10B0B000D4F80404D2F8003E23F00103BDE81040A8
:10B0C000C2F8003EFFF7CABC00ED00E0D0F804046F
:10B0D000FFF7DCBCD0F80404FFF7D6BCD0F80404BA
:10B0E000FFF7D6BCD0F80404FFF7D4BC014801F048
:10B0F00015B800BFD461002010B50B4C236A6BB1AA
:10B100000A4A136923F006031361FDF711FD226853
:10B11000D2F8003E23F00103C2F8003E044B4FF486
:10B1200080225A6110BD00BFD461002000ED00E014
:10B13000003C014070B5044600F018F9194804239A
:10B1400043600023C0E90933C0E9073343614FF08E
:10B15000A04203630361C3624363C0F80444022353
:10B16000C4F8C00202608361C36000F003FF20B135
:10B170000D4840F2FD1103F083FD0C4C0948A188F5
:10B18000084E01F0E0FB0125A28954F8081F304663
:10B1900001F00F01013501F0B6FB052DF4D10020BF
:10B1A00070BD00BFD461002043D202082CD3020836
:10B1B00008B5D0F8C00200F0A0FF002008BD08B517
:10B1C000D0F8C00200F05BFF002008BD08B5D0F841
:10B1D000C00200F073FF002008BD10B51446D0F87F
:10B1E000C0021A46234601F06DFA002010BD08B5D2
:10B1F000D0F8C00201F09EFA002008BD08B5D0F8D2
:10B20000C00201F012FB002008BD08B5D0F8C00252
:10B2100001F043FB002008BD11F0800FD0F8C032D0
:10B220004FF01C021BBF01F07F0102FB013102FB4A
:10B23000013191F83E0008BF91F8FE01704708B552
:10B24000D0F8C00201F02AFA002008BD08B5D0F8F5
:10B25000C00201F0CAFA002008BD08B5D0F8C0024B
:10B2600001F097FA002008BDD0F8C00201F0B5BA8D
:10B27000122301480B80704730010020042301484D
:10B280000B80704760010020002370B54D1C1E46E6
:10B29000040FB0F1204F34BF3034373401F813407D
:10B2A00005F813600133DCB294424FEA0010EFD38B
:10B2B00070BD00001A2310B50B80094B18680833C5
:10B2C0001B68C0180AD0074B07491C680822FFF703
:10B2D000DBFF064904222046FFF7D6FF044810BDD5
:10B2E000107AFF1F147AFF1F6601002076010020EC
:10B2F0006401002010B5044C04480A462146FFF7BB
:10B30000D4FD204610BD00BFDC650020A3D202089A
:10B310000A4608B5044920B90448FFF7C6FD0248AB
:10B3200008BD0348F9E700BFDC650020B6D202087B
:10B33000D4D2020810B5044C04480A462146FFF74F
:10B34000B4FD204610BD00BFDC650020F2D202082B
:10B3500010B5044C04480A462146FFF7A6FD2046D6
:10B3600010BD00BFDC6500200CD3020808B54FF00B
:10B37000A04003F049F80A2000F0FAF8BDE80840C0
:10B380004FF0A04003F034B8FFF768B991420FD0F6
:10B3900008D9891A01238B40984208D30130C8404C
:10B3A0000138704720B10130511A8840F8E7002079
:10B3B0007047000010B5FEF74FFD431C0AD0064C45
:10B3C000216803F055F9054B21681A68BDE8104063
:10B3D000FFF7DCBF002010BD8001002088010020A5
:10B3E00041282DE9F04104460F4641D8214B33F95D
:10B3F00010506A1C3CD02049DFF88C80284603F0AE
:10B4000046FB064600B3C5F303111C4A52F821005F
:10B4100005F00F0420FA04F3DB075FBF0123A3400C
:10B42000034342F82130164BD8F800101C68384608
:10B430002246FFF7ABFF13490246E3B228460968EC
:10B44000BDE8F04103F0B8B92046012100F01EF834
:10B45000D8F8001038460822FFF798FF7F2898BFD9
:10B460003146204688BF0121BDE8F04100F05CB8BC
:10B47000BDE8F08178D0020864CC0208FC05002009
:10B48000840100208C0100209001002041282DE93A
:10B49000F0410E463DD8204B33F91040621C38D0A5
:10B4A0001E4DC4F3031704F00F0855F8273023FA94
:10B4B00008F3DB0710D51A49204603F0E8FA10B16B
:10B4C000204603F0CBF9012303FA08F255F82730A0
:10B4D00023EA020345F82730052E14D8DFE806F0EA
:10B4E000030F090B0D1100212046BDE8F04103F0C8
:10B4F000DDBA1021F8E72021F6E70321F4E7012166
:10B50000F2E70921F0E7BDE8F0410648492103F0E0
:10B51000B7BBBDE8F08100BF78D00208FC05002071
:10B5200064CC020854D3020841289ABF0C4B33F96B
:10B5300010304FF0FF33C3F30312052A98BF0948B8
:10B5400003F00F0398BF50F82220074888BF00225D
:10B5500050F8233009B1936170471B04FBE700BF2B
:10B5600078D002089C01002014D4020803F0A6B988
:10B5700038B5044648B103F0A1F90546FEF754FC7E
:10B5800003F09CF9431BA342F8D338BD7047000079
:10B5900038B50E4A0E4B054618784FF47A73B3FB54
:10B5A000F0F31068B0FBF3F000F0DEFA044658B98F
:10B5B0000F2D09D8024629464FF0FF3000F080FADF
:10B5C000044B20461D6038BD0120FCE7B801002077
:10B5D000940100209801002008B50B4B1A6842F432
:10B5E00000721A601A6842F480621A601A6842F4A3
:10B5F00080721A60032000F051FA0020FFF7C8FFA4
:10B60000FFF7C4FF002008BD003C0240034A044B82
:10B6100011681B780B441360704700BFDC66002084
:10B6200094010020014B1868704700BFDC660020C1
:10B6300038B50446FFF7F6FF631C1CBF054B1B78AB
:10B64000054618BFE418FFF7EDFF431BA342FAD3EA
:10B6500038BD00BF9401002038B50446002800F032
:10B660009B80056C25B902F0C9FF656484F83C50E5
:10B67000236CDB0600F18E80236C23F4885323F0C7
:10B68000020343F002032364444B5A6822F440321D
:10B690005A605A6861680A435A60236821695A6887
:10B6A00022F480725A605A6842EA01225A605A684B
:10B6B000A16822F040725A605A680A435A609A6838
:10B6C000E16822F400629A609A680A439A603449F9
:10B6D000A26A8A4252D0996821F070619960996893
:10B6E0000A439A609A68E16A22F040529A609A6826
:10B6F0000A439A609A6822F002029A609A68217E50
:10B7000042EA41029A6094F82020002A3ED05A680A
:10B71000616A42F400625A605A6822F460425A60D8
:10B720005A68013942EA41325A60DA6AE16922F420
:10B730007002DA62DA6A013942EA0152DA629A6820
:10B7400022F400729A609A6894F8301042EA41221A
:10B750009A609A68616922F480629A609A6800200F
:10B7600042EA81229A606064236C23F0030343F071
:10B7700001032364002384F83C3038BD9A6822F02A
:10B7800070629A609A6822F04052B2E75A6822F4D6
:10B790000062C9E70120EDE70120EEE70023014048
:10B7A0000100000F38B50446A0B1036C43F002035A
:10B7B000036403689A6822F001029A609D6815F09C
:10B7C000010503D102F03EFF65642564002084F882
:10B7D0003C0038BD0120FCE782B00023019390F8C3
:10B7E0003C30012B4ED0012380F83C3003689A682E
:10B7F000D10705D59A68D20714D4002002B070474B
:10B800009A68214942F001029A60204A1268B2FB0C
:10B81000F1F202EB42020192019A002AEAD0019A67
:10B82000013AF8E7026C22F4E06222F0010242F4ED
:10B83000807202645A68510541BF026C22F4405282
:10B8400042F480520264026C12F480521CBF426CBB
:10B8500022F006024264002280F83C206FF02202AF
:10B860001A600B4A5268D20608D1986810F040500E
:10B87000C3D19A6842F080429A60BFE7054A93427A
:10B88000BBD1F2E70220B9E740420F00B801002027
:10B89000002301400020014090F83C30012B14D0DF
:10B8A00003689A6822F001029A609B68DB0707D45C
:10B8B000036C23F4885323F0010343F00103036472
:10B8C000002380F83C301846704702207047036818
:10B8D0009A68520570B504460D460BD59B68DE0587
:10B8E00008D5036C43F020030364002380F83C3048
:10B8F000012070BDFFF796FE064623681A6891077F
:10B900000CD56FF012021A60226C42F400722264AD
:10B910009A6812F0405F13D00020EAE7681CEDD06F
:10B9200045B9236C43F004032364002384F83C30BE
:10B930000320DEE7FFF776FE801BA842DDD9F0E7A3
:10B94000207E0028E8D1DA6A12F4700F02D09B68DA
:10B950005A05E1D4236C23F480732364236CDB0445
:10B96000DAD4236C43F001032364C2E70368D86C84
:10B9700070470000F7B50023019390F83C30012B8D
:10B9800066D0012380F83C300D6803688E68092D6D
:10B99000ACB231D904EB4402DF681E3A4FF0070C19
:10B9A0000CFA02FC27EA0C07DF60DF6806FA02F2F5
:10B9B0003A43DA604968062901EB81022CD8596BB9
:10B9C000053A1F26964021EA06015963596B04FA8D
:10B9D00002F20A435A632C4A934207D1122D39D1FD
:10B9E000D2F8043343F48003C2F80433002380F810
:10B9F0003C30184603B0F0BD1F6905EB45024FF01F
:10BA0000070C0CFA02FC27EA0C071F611F6906FAF3
:10BA100002F23A431A61CDE70C294FF01F010BD80F
:10BA20001E6B233A914026EA01011963196B04FA4F
:10BA300002F20A431A63CEE7DE6A413A914026EAEF
:10BA40000101D962D96A04FA02F20A43DA62C2E752
:10BA50000220CFE7A5F11003012BC7D80B4A53688A
:10BA6000102D43F400035360C0D1094B094A1B68F1
:10BA7000B3FBF2F20A2353430193019B002BB5D091
:10BA8000019B013BF8E700BF00200140002301407B
:10BA9000B801002040420F00006C70470749CA6897
:10BAA00022F4E0620302120403F4E063120C134375
:10BAB00043F0BF6343F40033CB60704700ED00E018
:10BAC000164B30B5DC68C4F30224C4F10705231D0E
:10BAD000042D28BF0425062B4FF0FF338CBF033CF9
:10BAE000002403FA05F521EA0501A34022EA030236
:10BAF000A140002841EA0203ACBF00F16040084ABF
:10BB00004FEA0313B8BF00F00F00DBB2AABF00F585
:10BB10006140135480F8003330BD00BF00ED00E0F9
:10BB200014ED00E0002808DB4209012300F01F00AB
:10BB300003FA00F0014B43F82200704700E100E0F7
:10BB400000280DDB4309012200F01F0002FA00F07B
:10BB50002033044A42F82300BFF34F8FBFF36F8FA7
:10BB6000704700BF00E100E00138B0F1807F0AD2E9
:10BB7000064B074A5860F02182F823100020072264
:10BB800098601A6070470120704700BF10E000E025
:10BB900000ED00E0002809DB4309012200F01F004E
:10BBA00002FA00F06033024A42F82300704700BFF7
:10BBB00000E100E008B503F019FD08BD90F835304C
:10BBC000022B03D0802343650120704702680523C0
:10BBD00080F83530136823F00103136000207047AC
:10BBE000094910B50C6924F440740C610C6944F4E3
:10BBF00040740C610C6944F001040C610260BFF3F5
:10BC00006F8F436010BD00BF003C0240074B1A69B4
:10BC100022F440721A611A6942F400721A611A69B8
:10BC200042F001021A610160704700BF003C02400F
:10BC3000074B1A6922F440721A611A6942F4807241
:10BC40001A611A6942F001021A610180704700BF4F
:10BC5000003C0240204BDA68D00606D51F49CA696D
:10BC600042F01002CA611022DA60DA68910606D545
:10BC70001A49CA6942F00802CA612022DA60164BEA
:10BC8000DA68520606D51549CA6942F00402CA614B
:10BC90004022DA60DA68100606D51049CA6942F017
:10BCA0000202CA618022DA600B4BDA68D10507D53F
:10BCB0000A49CA6942F00102CA614FF48072DA602F
:10BCC000DA68920706D50549CA6942F02002CA61BE
:10BCD0000222DA60704700BF003C0240E0660020AC
:10BCE000064B1A69002ABFBF054A5A6002F1883222
:10BCF0005A60BABF1869C00F00207047003C02406C
:10BD000023016745034A136943F000431361002090
:10BD1000704700BF003C0240F8B5124B124D0022A4
:10BD20000446DA61FFF77EFC2F460646EB68DA032D
:10BD30000CD4EB68DB0744BF0123EB60F86810F418
:10BD4000F97007D0FFF786FF012003E0611CEDD0FA
:10BD50000CB90320F8BDFFF765FC801BA042E5D9B4
:10BD6000F7E700BFE0660020003C0240F7B5204E38
:10BD700001931446327E012A07460D4635D0012232
:10BD80004CF250303276FFF7C7FFB8B9019BCFB9FC
:10BD9000184B186920F4407018611A691A61186903
:10BDA000E4B240F0010018612C704CF25030FFF703
:10BDB000B3FF104A136923F00103136100233376A4
:10BDC00003B0F0BD012F04D1A1B22846FFF730FF28
:10BDD000EBE7022F04D121462846FFF717FFE4E7DF
:10BDE00022462846FFF7FCFEDFE70220E8E700BF17
:10BDF000E0660020003C0240074B196921F44071C5
:10BE00001961196941F0040119611A6942EA0020B7
:10BE100040F4803018617047003C024039B101297C
:10BE20001CD002290CBF4FF400714FF440710D4B30
:10BE30001A6922F440721A611A69114319611A6968
:10BE400022F0F8021A611A6942EAC00040F00200CA
:10BE500018611A6942F480321A6170474FF4807198
:10BE6000E5E700BF003C0240144B1A6891050FD56E
:10BE70001A6822F400721A601A6842F400621A60AA
:10BE80001A6822F400621A601A6842F400721A609A
:10BE90000A4B1A6852050FD51A6822F480621A609C
:10BEA0001A6842F480521A601A6822F480521A60AA
:10BEB0001A6842F480621A60704700BF003C02407A
:10BEC0002DE9F843234E337E012B054688463FD0AB
:10BED00001234CF250303376FFF71EFF0446A8B919
:10BEE0004FF0FF33C8F800302B68012B13D1287CAA
:10BEF000FFF782FF4CF25030FFF70EFF164A13692E
:10BF000023F0040304461361FFF7AEFF00233376EA
:10BF10002046BDE8F883AF68DFF83C90D5E90223FE
:10BF20001344BB42F0D9297C3846FFF777FF4CF227
:10BF30005030FFF7F1FED9F8103023F0FA03C9F8BA
:10BF4000103018B1C8F800700446DDE70137E5E7A6
:10BF50000224DDE7E0660020003C0240044A51690B
:10BF6000014208B502D0506102F0DCFC08BD00BF00
:10BF7000003C0140F0B504468BB060B390F8BD338F
:10BF8000056803F0FF021BB980F8BC23FEF7EAFF47
:10BF9000032384F8BD33EB6B254613F4807355F807
:10BFA000100B08BF236101F08BFE0FCD6E460FC64C
:10BFB0000FCD0FC695E8030086E803002546271D30
:10BFC00097E80E0055F8100B01F0C4FD064620B1AD
:10BFD000022384F8BD3301254EE00146206801F0BC
:10BFE00075FE3046D4F804C01C264FF0010E014601
:10BFF000C2B2944500F101001CD800231C2619464A
:10C00000D8B2844503F1010322D80FCD6E460FC686
:10C010000FCD0FC695E8030086E8030097E80E00F1
:10C02000206801F095FE01230546F0B1022284F854
:10C03000BD23D0E706FB0243C3E9111183F83DE0BD
:10C0400083F83C20A3F8422083F83F101965CFE71E
:10C0500006FB0042C2E9811182F8FD1182F8FC0161
:10C0600082F8FF11C2F81012CAE784F8380020687D
:10C0700084F8BD3302F0C8F928460BB0F0BD10B506
:10C080000446006894F8BC33012B15D0012384F8D2
:10C09000BC33A36A012B06D1A369012B1EBF836B9E
:10C0A00043F48033836302F0A3F9206801F002FEB9
:10C0B000002084F8BC0310BD0220FCE770B590F8A6
:10C0C000BC33012B044616D0012680F8BC630068FF
:10C0D00001F0F6FD206802F05BF9054628B1002367
:10C0E00084F8BC333546284670BD206802F08CF9D0
:10C0F00084F8BC53F7E70225F5E710B5044658B1BC
:10C10000032380F8BD33FFF7D9FF2046FEF778FF01
:10C11000002084F8BD0310BD0120FCE72DE9F04F9D
:10C12000066887B00446304602F0A9F9029000285C
:10C1300040F02481206802F073F9002800F01E818D
:10C14000206802F06DF9830748BF2268206842BF6B
:10C15000536903F00203536102F062F9070300F12F
:10C160001081206802F05CF945030CD5206802F0CC
:10C1700063F92546039006F510694FF00008039B0C
:10C18000002B40F0BD81206802F04AF9002815DA42
:10C19000D6F8043823F00103C6F8043894F8F433D1
:10C1A000012B40F04182002184F8F413204600F076
:10C1B000CEFB2268536903F000435361206802F00C
:10C1C0002FF900050BD5D6F80838D90702D5204637
:10C1D000FEF74AFF2268536903F400635361206845
:10C1E00002F01EF9C20437D5D6F80438206823F0CF
:10C1F00001031021C6F8043801F080FD06F5006542
:10C2000006F510634FF67F3162680298824200F2B1
:10C210000F82EB6943F00113EB61236B002B00F0FD
:10C220001982D5F8843043F00B03C5F884306B6C69
:10C2300043F00B036B64D6F80038217C206823F4AC
:10C24000FE63C6F8003804F5717202F039F922680D
:10C25000536903F480535361206802F0E1F88304CA
:10C2600016D5206802F00FF9206801F039FEE06071
:10C27000256800F0DFFD227B0146284601F0AAFC7C
:10C280002046FEF7E4FE2268536903F4005353612D
:10C29000206802F0C5F8C7062AD52268936923F002
:10C2A00010039361376AC7F34343022B07F00F056E
:10C2B00040F0DB8147F6F0731F4214D01C2303FBD0
:10C2C0000545C7F30A184246D5F80812304601F072
:10C2D000FDFFD5F80822D5F8143242444344C5F88E
:10C2E0000822C5F814322268936943F01003936161
:10C2F000206802F095F8060707D52046FEF7A3FE52
:10C300002268536903F008035361206802F088F83B
:10C31000C50208D500212046FEF7DCFE22685369DD
:10C3200003F480135361206802F07AF8800208D584
:10C3300000212046FEF7CAFE2268536903F4001369
:10C340005361206802F06CF8410007D52046FEF7E3
:10C35000C5FE2268536903F080435361206802F0F0
:10C360005FF842070AD523685D686B0702D520464F
:10C37000FEF7B8FE226853682B43536007B0BDE850
:10C38000F08F2068DFF810B302F04EF806F5306544
:10C39000804604F5017A4FF00009B8F1000F3FF430
:10C3A000E0AE18F0010F00F0A3805FFA89F1206879
:10C3B000039102F049F810F0010F039907464DD0A0
:10C3C0000123AB6023682069D3F840C003F53063D4
:10C3D00003EB491301289A6854D1100714D5DC45A2
:10C3E00004D9120444BF4FF400429A6020460393DC
:10C3F000FEF712FE04F571722068012102F060F868
:10C40000039B08229A6029E0900601D52022F9E7D3
:10C4100012F0280F22D1DC4504D9120402D54FF4C2
:10C420000042EFE71B69DAF80020C3F31203D31AC6
:10C43000CAF81030DAF804301A44CAF8042020464A
:10C44000FEF7F0FDB9F1000F08D1D4F810322BB986
:10C45000206804F57172012102F032F8380732D5F4
:10C46000236820691A6C03F5306303EB4913012834
:10C47000996814D15A4515D9090444BF4FF40041B5
:10C4800099600FE08348844505D11004C7D4920613
:10C4900044BF20229A602046FEF7C4FDDEE77D48B7
:10C4A0008242E9D020460392FEF7B6FD039A5A4530
:10C4B00007D92169012904D1206804F5717201F0BE
:10C4C000FFFF0823AB60FB0644BF1023AB60B80638
:10C4D00009D52169012904D1206804F5717201F0A0
:10C4E000EFFF2023AB60B90444BF4FF40053AB60AF
:10C4F00009F101094FEA580820350AF11C0A4CE7F6
:10C50000039BDA0740F187805FFA88FB2068594671
:10C5100001F0A3FFC307074624D5D6F8343801201D
:10C5200008F00F0200FA02F223EA0203C6F83438D8
:10C530002369C9F80800834202BFD5E911239B187B
:10C54000AB6459462046FEF776FD2169012909D1E1
:10C55000B8F1000F06D1236D23B9206804F571727C
:10C5600001F0AEFF380744BF0823C9F80830F906C8
:10C5700044BF1023C9F808307A0644BF4023C9F8E5
:10C580000830BB0744BF0223C9F808303F0642D534
:10C59000D5E914329A423ED89B1A6A6CD4F800A0AE
:10C5A000934228BF134603339B0804930AF5106394
:10C5B00003EB48130593059B04999A6992B28A424A
:10C5C000D5E9147325D39F4200D95FB9DAF834381E
:10C5D00008F00F02012101FA02F223EA0203CAF86D
:10C5E000343818E0FF1A6B6C9F4228BF1F46FB1CB3
:10C5F0009B080493237C0093A96CBBB25A46504617
:10C6000001F062FDAB6C3B44AB646B6D1F446F6526
:10C61000D1E79F42DAD9039B5B0808F10108039335
:10C620001C3509F12009AAE52046FEF735FDC0E5D5
:10C6300099601A6822F400121A60C3F80812D3F83D
:10C64000002222F40012C3F80022029A0132029260
:10C650002033D9E56B6943F4005343F02B036B613E
:10C660002B6943F00B032B61E5E5062B7FF43BAE12
:10C67000082204F57171304601F028FE1C2303FBEB
:10C680000545C7F30A17D5F814321F44C5F81472CC
:10C6900029E600BF0A31544F0A30544F10B590F8C4
:10C6A000BC23012A04460BD0012280F8BC2380F869
:10C6B0003810006801F08CFE002084F8BC0310BD27
:10C6C0000220FCE770B501F00F06C6EBC60411F0BE
:10C6D000800F05464FEA84044FF01C001FD000FB7A
:10C6E000065004F13C010124294480F83D408A6051
:10C6F0004A780E70CB7002B1CE80022B04BF0023AB
:10C700000B7195F8BC33012B12D00123286885F8F2
:10C71000BC3301F0F0FB002085F8BC0370BD00FBCA
:10C72000065004F5FE710024294480F8FD41DEE73F
:10C730000220F3E710B5044601F00F00C0EBC00380
:10C7400011F0800F4FEA83034FF01C0216D002FB5A
:10C75000004203F13C010123214482F83D3008707E
:10C7600094F8BC33012B12D00123206884F8BC3329
:10C7700001F000FC002084F8BC0310BD02FB004265
:10C7800003F5FE710023214482F8FD31E7E7022022
:10C79000F3E738B501F00F051C2404FB050104FB89
:10C7A000050401F5FE71C4F810320023C4F8082214
:10C7B000C4F8143284F8FD3184F8FC510369006830
:10C7C000012B08BFC4F80C22DAB21DB901F002FC3B
:10C7D000002038BD01F08CFCFAE701F00F011C23AA
:10C7E00003FB0100D0F81402704738B501F00F05C3
:10C7F0001C2404FB050104FB05043C3123650023D4
:10C8000063650123A26484F83D3084F83C500369D9
:10C810000068012B08BFE264DAB21DB901F0DAFB4F
:10C82000002038BD01F064FCFAE738B5436801F038
:10C830000F059D4204462CD811F0800F4FF01C00CC
:10C840001ED000FB054200FB054101233C3182F86C
:10C850003D3001238B700D7094F8BC239A421AD09E
:10C86000206884F8BC3301F03FFD2DB9217C20689D
:10C8700004F5717201F024FE002084F8BC0338BD79
:10C8800000FB01431A4603F5FE71002382F8FD31D7
:10C89000DFE70120F3E70220F1E738B5436801F054
:10C8A0000F029A4204462AD8C2EBC20311F0800F4D
:10C8B0004FEA83034FF01C0018D000FB024003F145
:10C8C0003C010123214480F83D3000258D700A7021
:10C8D00094F8BC33012B14D00123206884F8BC33B6
:10C8E00001F02DFD84F8BC53284638BD00FB024002
:10C8F00003F5FE710023214480F8FD31E5E70120B6
:10C90000F3E70220F1E7006870B51204446A19B930
:10C9100022438262002070BD836A4D1E04EB1344E3
:10C9200000235E1CDBB29D4205D83F3100EB810045
:10C9300022434260EEE7403300EB83035B6804EB85
:10C9400013443346EDE7036800205962704770478F
:10C950002DE9F341044640B30368DD0710D4236892
:10C9600098075ED423681A0700F1A08023685B074C
:10C9700000F1BE80A069002840F01F8100202BE05C
:10C98000A64B9A6802F00C02042A07D09A6802F0BB
:10C990000C02082A0BD15A68510208D59F4B1B681C
:10C9A0009A03DCD56368002BD9D1012014E06268BA
:10C9B000B2F5803F13D11A6842F480321A60FEF754
:10C9C00031FE964E054633689B03C8D4FEF72AFE17
:10C9D000401B6428F7D9032002B0BDE8F0818F4DD9
:10C9E000B2F5A02F2B6807D143F480232B602B686E
:10C9F00043F480332B60E2E723F480332B602B6811
:10CA000023F480232B60002AD9D1FEF70BFE0646C3
:10CA10002B689F03A3D5FEF705FE801B6428F7D97A
:10CA2000D9E77E4B9A6812F00C0F07D09A6802F093
:10CA30000C02082A11D15B685E020ED4774B1A688B
:10CA4000950702D5E268012AAFD11A68216922F060
:10CA5000F80242EAC1021A6084E7E268704BB2B1A0
:10CA600001221A60FEF7DEFD6C4D06462B68980722
:10CA700007D52B68226923F0F80343EAC2032B6031
:10CA800070E7FEF7CFFD801B0228EFD9A3E71A60FD
:10CA9000FEF7C8FD614E0546336899077FF562AF22
:10CAA000FEF7C0FD401B0228F6D994E762695D4B92
:10CAB0007AB101221A60FEF7B5FD584E0546736F34
:10CAC0009F073FF553AFFEF7ADFD401B0228F6D997
:10CAD00081E71A60FEF7A6FD504E0546736F980772
:10CAE0007FF544AFFEF79EFD401B0228F6D972E7A2
:10CAF0004A4B1A6C12F0805228D101921A6C42F003
:10CB000080521A641B6C03F080530193019B012730
:10CB1000454D2B68D9051BD5A368404D012B27D166
:10CB20002B6F43F001032B67FEF77CFD3B4E054660
:10CB300041F28838336F9B0739D5002F3FF41AAF85
:10CB4000364A136C23F08053136413E70027DFE7A2
:10CB50002B6843F480732B60FEF764FD06462B6858
:10CB6000DA05D9D4FEF75EFD801B0228F7D932E73B
:10CB7000052B04D12B6F43F004032B67D0E72A6FFA
:10CB800022F001022A672A6F22F004022A67002B92
:10CB9000CAD1FEF747FD41F2883806462B6F980749
:10CBA000CBD5FEF73FFD801B4045F7D913E7FEF7D5
:10CBB00039FD401B4045BDD90DE7184DAB6803F06A
:10CBC0000C03082B47D0194E00230228336035D1BF
:10CBD000FEF728FD07462B68990129D4D4E90732CE
:10CBE0001343626A43EA8213E26A43EA0263A26A77
:10CBF0005208013A43EA02436B6001233360FEF7B7
:10CC000011FD064D04462B689A013FF5B7AEFEF7BD
:10CC100009FD001B0228F6D9DDE600BF00380240FE
:10CC200000004742800E47420070004060004742CB
:10CC3000FEF7F8FCC01B0228CDD9CCE6FEF7F2FCCB
:10CC400004462B689B017FF599AEFEF7EBFC001BB9
:10CC50000228F6D9BFE601283FF4BEAEAB68E26910
:10CC600003F4800191427FF4A0AE216A03F03F02F9
:10CC70008A427FF49AAE616A47F6C0721A408A42CD
:10CC80007FF493AEA16A03F440328A427FF48DAE02
:10CC9000E26A03F0706393423FF470AE85E600BF32
:10CCA000134908B58B6803F00C03042B1CD0082B28
:10CCB0001CD14A684B68496813F4800314BF0D48BF
:10CCC0000D48C1F3881118BF002302F03F02A1FBF9
:10CCD0000001FBF799FE064B5B68C3F30143013388
:10CCE0005B00B0FBF3F008BD0248FCE70248FAE73E
:10CCF0000038024000127A000024F4002DE9F041CF
:10CD00000D46044610B90120BDE8F081444B1A6875
:10CD100002F00F028A4228D3226897072DD4D00749
:10CD200041D43F4B1A6802F00F02AA4266D822682B
:10CD300051076CD4130707D53A4A2169936823F445
:10CD4000604343EAC1039360FFF7AAFF354B364ABD
:10CD50009B68C3F30313D35CD840344B1860344B47
:10CD60001868FEF715FC0020CEE7CAB21A701B68DF
:10CD700003F00F038B42C6D1CEE72A4B12F0040F0B
:10CD80001EBF996841F4E0519960160742BF996847
:10CD900041F4604199602349A0688B6823F0F00357
:10CDA00003438B60BBE762681E4B012A1CD11B68E2
:10CDB00013F4003FA7D01B4EB36823F003031343C3
:10CDC000B360FEF72FFC41F288380746B36862680B
:10CDD00003F00C03B3EB820FA3D0FEF723FCC01BC0
:10CDE0004045F3D903208FE7911E01291B6802D823
:10CDF00013F0007FDEE713F0020FDBE7EAB21A70F0
:10CE00001B6803F00F03AB427FF47DAF8FE705494A
:10CE1000E0688B6823F4E05303438B608AE700BF2C
:10CE2000003C02400038024054D40208B8010020FF
:10CE300098010020014B1868704700BFB80100201E
:10CE4000044B054A9B68C3F38223D35C034A1068F2
:10CE5000D84070470038024064D40208B80100206E
:10CE6000044B054A9B68C3F34233D35C034A106802
:10CE7000D84070470038024064D40208B80100204E
:10CE80000F2303600B4B9A6802F0030242609A681A
:10CE900002F0F00282609A6802F4E052C2609B687D
:10CEA000DB0803F4E0530361034B1B6803F00F033B
:10CEB0000B60704700380240003C024003230360CF
:10CEC0000C4BD3F88420C2F388124260D3F884203C
:10CED000C2F30272826099681A6F01F4F81102F4C9
:10CEE00040720A43C260D3F88C30C3F3006303740A
:10CEF000704700BF00380240704710B50446002854
:10CF000036D00023836290F8513003F0FF021BB942
:10CF100080F85020FFF7F0FF2168A269022384F80F
:10CF200051300B6823F040030B60D4E90130034318
:10CF3000E06803432069034360690343E0690343F6
:10CF4000206A0343A06A034302F4007003430B60AA
:10CF5000120C636A02F004021A434A60CB6923F49C
:10CF60000063CB6100200123606584F8513010BD5F
:10CF70000120FCE7036A23F001030362036A70B532
:10CF8000446882690D6822F073022A438D6823F099
:10CF900002032B430A4DA8420BD1CD6823F00803AE
:10CFA0002B43D1E9055624F44074354323F00403A0
:10CFB0002C43446082614A684263036270BD00BFD3
:10CFC00000000140036A23F480730362036A70B5B2
:10CFD0004468C2690D6822F073022A438D6823F405
:10CFE000007343EA05230B4DA8420DD1CD6823F40D
:10CFF000006343EA0523D1E9055624F44054354340
:10D0000023F4806344EA05144460C2614A68C26341
:10D01000036270BD00000140036A23F48053036281
:10D02000036A30B54468C2690D6822F4E64242EAF8
:10D0300005228D6823F4005343EA0533064DA842C8
:10D0400002BF4D6924F4804444EA85144460C261FF
:10D050004A680264036230BD00000140022380F888
:10D060003D3003689A6802F00702062A1EBF1A685C
:10D0700042F001021A60012380F83D300020704721
:10D0800090F83C30012B4FF0020309D080F83D307E
:10D0900003685961012380F83D30002380F83C305B
:10D0A000184670477047704703681A69910710B5B2
:10D0B00004460ED5DA6892070BD56FF002021A61AA
:10D0C000012202779B699B0777D0FCF767FB00235F
:10D0D000237723681A69500710D5DA6851070DD5F0
:10D0E0006FF004021A61022222779B6913F4407FD9
:10D0F000204668D0FCF752FB0023237723681A6987
:10D1000012070FD5DA6810070CD56FF008021A6104
:10D1100004222277DB69990720465AD0FCF73EFBB0
:10D120000023237723681A69D20610D5DA68D0065F
:10D130000DD56FF010021A6108222277DB6913F413
:10D14000407F20464BD0FCF729FB00232377236840
:10D150001A69D10708D5DA68D20705D56FF0010240
:10D160001A612046FCF7EEFA23681A69100608D502
:10D17000DA68110605D56FF080021A61204600F0CA
:10D1800076FA23681A69520608D5DA68500605D57A
:10D190006FF040021A612046FFF785FF23681A6985
:10D1A000910622D5DA6892061FD56FF0200220463C
:10D1B0001A61BDE8104000F059BAFCF7EDFA2046BC
:10D1C000FFF770FF83E7FCF7E7FA2046FFF76AFFF7
:10D1D00092E7FCF7E1FA2046FFF764FFA0E7FCF7CF
:10D1E000DBFA2046FFF75EFFAFE710BD244A036875
:10D1F00090420ED0B0F1804F0BD0A2F57C4290420D
:10D2000007D002F58062904203D002F5806290421E
:10D2100015D14A6823F070031343194A904219D07C
:10D22000B0F1804F16D0A2F57C42904212D002F5A8
:10D23000806290420ED002F5806290420AD0114A7C
:10D24000904207D002F58062904203D002F58062DE
:10D25000904203D1CA6823F4407313434A6923F010
:10D260008003134303608B68C3620B688362044BC3
:10D27000984204BF0B69036301234361704700BFF9
:10D28000000001400040014010B50446A0B190F8F4
:10D290003D3003F0FF021BB980F83C2001F0C0FED6
:10D2A0000223206884F83D30211DFFF79FFF0123F2
:10D2B00084F83D30002010BD0120FCE7036A23F014
:10D2C00010030362036A70B5446882690D6822F432
:10D2D000E64242EA05228D6823F0200343EA051363
:10D2E0000B4DA8420DD1CD6823F0800343EA05130E
:10D2F000D1E9055624F44064354323F0400344EA61
:10D300008504446082614A688263036270BD00BF25
:10D310000000014010B590F83C30012B04464FF05E
:10D32000020010D00123082A84F83C3084F83D0024
:10D3300018D009D872B1042A10D00123002084F833
:10D340003D3084F83C0010BD0C2AF6D12068FFF770
:10D3500063FEF2E72068FFF70DFEEEE72068FFF7B7
:10D36000ADFFEAE72068FFF72DFEE6E738B590F855
:10D370003C30012B04464FF0020010D00123082A54
:10D3800084F83C3084F83D003FD009D8DAB1042A53
:10D390002AD00123002084F83D3084F83C0038BDB9
:10D3A0000C2AF6D12068FFF737FE23680969DA698D
:10D3B00042F40062DA61DA6922F48062DA61DA69E1
:10D3C00042EA012230E02068FFF7D4FD23680969B2
:10D3D0009A6942F008029A619A6922F004029A61FD
:10D3E0009A690A439A61D4E72068FFF767FF2368C8
:10D3F00009699A6942F400629A619A6922F480622A
:10D400009A619A6942EA0122ECE72068FFF7DAFDA7
:10D4100023680969DA6942F00802DA61DA6922F000
:10D420000402DA61DA690A43DA61B2E770B5046AC4
:10D43000164E24F001040462B0428469056A21D0CA
:10D44000B0F1804F1ED0A6F57C46B0421AD006F54A
:10D450008066B04216D006F58066B04212D006F55E
:10D460009A36B0420ED044F001021B01DBB222F02A
:10D47000F0021A4301F00A0125F00A031943826100
:10D48000016270BD24F003042243EEE70000014076
:10D49000F8B590F83C30012B04460E4615464FF087
:10D4A00002001AD0012384F83D0084F83C30D1E911
:10D4B00000122068F3688DB9FFF7B8FF2368B168E0
:10D4C0009A6922F00C029A619A690A439A610123CF
:10D4D000002084F83D3084F83C00F8BD042DB66887
:10D4E00022D1056A25F0100505628769D0F820E091
:10D4F00027F4407C1D034CEA022C09012CF4704CEB
:10D50000ADB22EF0A00E01F0A00145EA0C0541EAF3
:10D510000E0185610162836923F44063836183693D
:10D5200043EA06268661D2E7082D056A1CD125F458
:10D5300080750562C769056A27F0030717431B0159
:10D540000902DBB227F0F00725F4206501F4206121
:10D550001F432943C7610162C36923F00C03C36100
:10D56000C3691E43C661B2E725F480550562C569EB
:10D57000076A25F4407545EA02251B03090325F4D3
:10D5800070459BB227F4204701F420412B433943D7
:10D59000C3610162C36923F44063C361C36943EAA1
:10D5A0000626DFE7036A01F01F0110B501248C4055
:10D5B00023EA04030362036A8A401A43026210BD2D
:10D5C00010B5044601220068FFF7ECFF2368094A02
:10D5D000934202BF5A6C42F400425A649A6802F0C5
:10D5E0000702062A1EBF1A6842F001021A600020D4
:10D5F00010BD00BF00000140FFF7E2BF10B50446B8
:10D6000001220068FFF7CEFF23689A6802F0070244
:10D61000062A1EBF1A6842F001021A60002010BDDF
:10D62000036A01F01F0110B504248C4023EA0403AF
:10D630000362036A8A401A43026210BD10B50446B1
:10D6400004220068FFF7ECFF23685A6C42F40042A2
:10D650005A649A6802F00702062A1EBF1A6842F04E
:10D6600001021A60002010BDFFF7E8BF7047704745
:10D670000368DA6822F49072DA605A6922F00102D3
:10D680005A61202380F83A307047000038B50368AB
:10D69000C1681A69044622F440520A431A61256996
:10D6A000A268D968C0692A43656921F416412A43F2
:10D6B00021F00C0102430A43DA605A69A16922F49D
:10D6C00040720A43B0F5004F5A61254A28D193426F
:10D6D00003D002F5806293421FD1FFF7C1FB62685D
:10D6E000002392184FF019015B41A0FB0101FBF7E9
:10D6F0008BF96421B0FBF1F501FB1503DB0032333C
:10D70000B3FBF1F303F007025B00216802EB0512A3
:10D7100003F4F87313448B6038BDFFF791FBDEE729
:10D72000934202D00F4A934217D1FFF799FB6368E7
:10D7300019219A00A0FB01019B0FFBF765F96422F8
:10D74000B0FBF2F102FB110324681B013233B3FB7F
:10D75000F2F303EB0113A360DEE7FFF771FBE6E7EB
:10D760000010014000140140704710B5044640B35A
:10D7700090F8393003F0FF021BB980F83820FFF72A
:10D78000F3FF2268242384F83930D36823F400534C
:10D79000D3602046FFF77AFF23681A6922F490428B
:10D7A0001A615A6922F02A025A61DA6842F4005278
:10D7B000DA6000202023E06384F8393084F83A30BE
:10D7C00010BD0120FCE710B5044660B390F8393075
:10D7D00003F0FF021BB980F83820FFF7C5FF22686D
:10D7E000242384F83930D36823F40053D3602046CF
:10D7F000FFF74CFF23681A6922F490421A615A69B4
:10D8000022F022025A615A6942F008025A61DA682B
:10D8100042F40052DA6000202023E06384F83930BB
:10D8200084F83A3010BD0120FCE7704710B504467B
:10D8300090B10268242380F83930D36823F4005370
:10D84000D360FFF7F2FF0020E06384F8380084F82B
:10D85000390084F83A0010BD0120FCE790F8393017
:10D86000202B18D1A9B1A2B190F83830012B12D0D9
:10D87000C28401628284016800232122C36380F88C
:10D88000383080F83920CA6842F08002CA601846F1
:10D890007047012070470220704790F83A30202BE3
:10D8A00020D1E9B1E2B190F83830012B1AD0C2850D
